:020000040800F2
:10000000980F00208D010008431200088B11000892
:1000100000000000000000000000000000000000E0
:10002000000000000000000000000000D1130008E4
:10003000000000000000000045120008D513000871
:100040009F010008000000009F0100089F010008B8
:100050009F0100089F0100083D0600089F0100085D
:10006000000000009F010008050600089F0100082D
:100070009F0100089F0100089F0100080000000088
:100080009F01000800000000000000009F01000820
:10009000000000009F0100089F0100089F01000868
:1000A000000000009F01000800000000F11500089A
:1000B00000F002F800F03EF80CA030C80838241810
:1000C0002D18671EA246AB4654465D46AC4201D190
:1000D00000F030F87E460F3EB6460FCC0126334284
:1000E00000D0FB1A3343A246AB461847D82E000077
:1000F000F82E0000103A02D378C878C1FAD8520717
:1001000001D330C830C101D504680C6070470000CD
:100110000023002400250026103A01D378C1FBD823
:10012000520700D330C100D50B6070471FB51FBD0B
:1001300010B510BD00F0AFF81146FFF7F7FF01F062
:1001400013FE00F0C7F803B4FFF7F2FF03BC00F0A2
:10015000CDF8000070B505460C46164602E00FCCFF
:100160000FC5103E102EFAD2082E02D303CC03C5C1
:10017000083E042E07D301CC01C5361F03E02178C9
:100180002970641C6D1C761EF9D270BD074880472B
:1001900007480047FEE7FEE7FEE7FEE7FEE7FEE76B
:1001A00004480549054A064B70470000E51300085E
:1001B000B100000898090020980F0020980B00203B
:1001C000980B002030B5441C03E00178401C002946
:1001D0000DD08107F9D10B4BDD0104C8D11A914331
:1001E0002940FAD0001B0A0603D0C01E30BD001BF8
:1001F00030BD0A0401D0801E30BD0902FCD0401E73
:1002000030BD000001010101024670B50A439207AA
:100210002AD11E4DEE0104C808C9541B9443344032
:1002200017D0D0B2D9B2401A2106014310D190B2F2
:1002300099B2401A210401430AD110021902000A9E
:10024000090A401A2102014302D1100E190E401A68
:1002500070BD9A42DFD010BA19BA884201D9012084
:1002600070BD0020C04370BD02780B78401C491C53
:10027000002A09D09A4207D102780B78401C491C09
:10028000002A01D09A42EFD0D01A70BD01010101BD
:10029000704770477047754600F024F8AE46050079
:1002A00069465346C008C000854618B020B5FFF720
:1002B00077FF60BCB64600260027C0C5C0C5C0C5D4
:1002C000C0C5C0C5C0C5C0C5C0C5403D490849007E
:1002D0008D46704710B50446C046C0462046FFF71D
:1002E00032FF10BD0048704720000020014918204F
:1002F000ABBEFEE726000200704710B5202A04DBE3
:100300000846203AD040002110BD0B462024D3409F
:10031000D040A21A91400843194610BDF8B5042AEE
:100320002CD3830712D00B78491C0370401C521E3B
:1003300083070BD00B78491C0370401C521E8307A7
:1003400004D00B78491C0370401C521E8B079B0F76
:1003500005D0C91ADF002023DE1B08C90AE0FFF719
:10036000F9FEF8BD1D4608C9FD401C46B4402C43AB
:1003700010C0121F042AF5D2F308C91A521EF0D475
:100380000B78491C0370401C521EEAD40B78491CA0
:100390000370401C012AE4D409780170F8BD431AA7
:1003A00070B593421BD28918801804E0491E401E84
:1003B0000B78521E03709307F8D106E010391038FD
:1003C00078C9103978C01038103A102AF6D203E0F4
:1003D000091F001F0B680360121FF9D570BDFFF7DE
:1003E000B9FE70BDF8B5064614460843800707D02D
:1003F000751AA54219D20819102D13D2311907E028
:100400003046FFF7CCFFF8BD401E491E02780A7047
:10041000641EF9D2F8BD471B2A463946FFF77EFF16
:10042000641B3846A542F6D3011B22463046FFF72F
:1004300075FFF8BDD2B210B513029A1813049A18BA
:1004400000F017F810BDD2B210B513029A181304B9
:100450009A1800F001F810BD01E004C0091F04293A
:10046000FBD28B0701D50280801CC90700D0027027
:10047000704700290BD0C30702D00270401C491EF0
:10048000022904D3830702D50280801C891EE3E77A
:100490000022EEE70022DFE7002203098B422CD383
:1004A000030A8B4211D300239C464EE003460B43C4
:1004B0003CD4002243088B4231D303098B421CD326
:1004C000030A8B4201D394463FE0C3098B4201D318
:1004D000CB01C01A524183098B4201D38B01C01A50
:1004E000524143098B4201D34B01C01A52410309C7
:1004F0008B4201D30B01C01A5241C3088B4201D376
:10050000CB00C01A524183088B4201D38B00C01A22
:10051000524143088B4201D34B00C01A5241411A49
:1005200000D201465241104670475DE0CA0F00D02C
:100530004942031000D3404253409C460022030925
:100540008B422DD3030A8B4212D38901FC2212BAAB
:10055000030A8B420CD3890192118B4208D3890183
:1005600092118B4204D389013AD0921100E089099B
:10057000C3098B4201D3CB01C01A524183098B427C
:1005800001D38B01C01A524143098B4201D34B0165
:10059000C01A524103098B4201D30B01C01A5241C8
:1005A000C3088B4201D3CB00C01A524183088B424F
:1005B00001D38B00C01A5241D9D243088B4201D3D8
:1005C0004B00C01A5241411A00D201465241104616
:1005D00063465B1001D34042002B00D5494270476F
:1005E00063465B1000D3404201B50549002802DC98
:1005F000491C084000E00846C046C04602BD00BF96
:10060000FFFFFF7F80B5034800F0BCF8024800F010
:10061000B9F880BD80030020C40300200649098882
:100620004A08904201D300207047C0430818800256
:100630000121C90640187047CCF7FF1FFEB52F48AF
:100640000168490758D504210160B24EB07B0228E9
:1006500029D0012850D102F083FBC0074CD10125DD
:10066000274A1561776A02A8612101700824146184
:1006700001A92A4600F0E2FB22480178384600F042
:1006800079FA1F48046002F071FB40210143072002
:1006900002F066FC1B4802781220394902F0AAFBDE
:1006A00017480560D7E702F061FB810603D4C00656
:1006B0000DD4F47B19E002F03CFB114901200860E5
:1006C00002F076FBF07B00280ED0441E0AE002F018
:1006D00039FB02F025FB0A48012101600024204675
:1006E00002F066FBF47300E00024707B012803D164
:1006F000200601D102F04AFBFEBDC04614040140B1
:100700001800004800000020EFF3108072B6FEE7EA
:1007100010B580490A6A1848184B0468E40705D0E8
:100720000C6AA41A9C42F8D9032010BD01688906FE
:1007300001D5202101600168C90604D40168490778
:1007400001D4002010BD0168C90601D4002105E0D4
:100750000B49CA6B02231343CB6310210268520773
:1007600006D5074AD36B01241C43D46304221143EA
:100770000160012010BDC0460C20024050C30000A3
:1007800058090020F8B5C16B046C04273B46A34010
:1007900000910E6802681568334201D069071BD4C6
:1007A000034620330227A740374201D0A9071DD4B2
:1007B000E64031072BD5290729D511680E25A94315
:1007C000116001210A46A240009C62608163002200
:1007D0001A705970016B17E01168890602D411680C
:1007E000B943116000994B60C16A0DE01168890638
:1007F00005D411680A24A143116001215970002118
:10080000197000994F60816A002900D08847F8BDAF
:10081000F0B585B000282DD00446064620360220CB
:100820007070A2CC236860680190A0680290E068B4
:100830000390206904900868104A02402A433A4312
:100840001A43019802430298024303980243049812
:1008500002430A600025E5620948206335700948B3
:100860000C3C08181421FFF717FE800020640120BB
:10087000707000E00125284605B0F0BD0FC0FFFFF5
:1008800000000240F8FFFDBFFCB504462020255CB7
:100890000220012D2AD02646203601253570777892
:1008A000012F21D1022070700020A06326683768D4
:1008B000AF433760E76B0097276C0195BD40009F01
:1008C0007D6073606368102B174600D00F46B760D9
:1008D000102B00D01146F1603168E26A002A019BBA
:1008E00005D00E22114308E000213170FCBD0A2220
:1008F00011433160316804229143316031681943FA
:100900003160FCBD0348016A026A521A652AFBD3B2
:100910007047C046F80800200448C168090604D59D
:100920000349016003490160C06870470420024028
:1009300023016745AB89EFCDF0B589B00790092059
:10094000C006049000231F461A46079805682846EB
:10095000D04000D19EE0012002909040054000D19F
:1009600094E00592069307994E68032133460B40A5
:100970005A1E012A0397019619D8032206998A4024
:100980000092049FB9689143079CE468069A9440DA
:100990000C43BC60F106C90F059EB1407C688443DE
:1009A0000C437C600098C4437000039F0AE0084633
:1009B000069A9040C443032B104603D106980B4679
:1009C000019920E0049EF16800942140079A946800
:1009D00084400C43F460022B13D11C2139400F23B7
:1009E0008B40059CE408A400049E3419266A9E43AB
:1009F00013698B403343039F2362516803230B40E9
:100A000000E00199009C8340049A1068204018433C
:100A100010608803800F069B059A37D01F4908682D
:100A2000029C204308600868204008900C20384051
:100A30000F218140032082430898194E9059884322
:100A400090511548816807984068C20201D5294332
:100A500000E0A943104A9160D1688202039F01D54A
:100A6000294300E0A9430C4AD1605168820301D5B3
:100A7000294300E0A943084A51601168C00301D529
:100A8000294300E0A943059A034801609B1C3F1DD0
:100A9000521C5AE709B0F0BD000401401810024092
:100AA0000800014010B5164880687D21C900FFF795
:100AB000F3FC411E080E11D109480A4A51600A4947
:100AC0000B6803400324A4071B190B6000239360E9
:100AD000072313600A6802401019086010BDC04661
:100AE000FFFFFF0010E000E020ED00E00448806818
:100AF000044909684905490F03A2515CC840704781
:100B00000000002004100240000000000102030465
:100B100010B50D490A680C2313400C48082B08D166
:100B200093021B0F0AA4E45C896AD20303D4104821
:100B300007E0044606E00F22114009A2515CFFF7CE
:100B4000ABFC4443204610BD0410024000127A0062
:100B500002030405060708090A0B0C0D0E0F1010FE
:100B60000102030405060708090A0B0C0D0E0F10FD
:100B700000093D00F0B587B00A465D26AD4DA95D80
:100B8000012900D0BDE06F6841218C00A74208D147
:100B9000A968002905D10421A955014600F04EF9A4
:100BA000B2E05C216B5C012B00D1ADE004970594B1
:100BB00001236B54A049096A0691002800D1A0E0E6
:100BC000002A00D19DE01F460421A9550021296675
:100BD0004623EA5244242A53E9872864A987A96353
:100BE000E964296507221402EA680392A2423A46A0
:100BF00000D90A46110302910097390301912A682E
:100C00005168019FB943029FC9195160AF680099AB
:100C1000C90302978F4208D111684027B943116078
:100C20000121890317688F4317601168490603D4AF
:100C3000116840270F431760611C039F8F4216D233
:100C4000E95A00292AD09168C90708D17A49096A66
:100C5000069FC91B2746CF37B942F1D94FE0117B18
:100C60000170E95A491EE952401C2864E8E7E95A34
:100C7000002913D09168C90708D1F549096A069F70
:100C8000C91B2746CF37B942F1D938E0D168018076
:100C9000E95A491EE952801C2864E8E7059C04983B
:100CA000A0420CD10120C103029B8B4203D08002E1
:100CB0000299814203D11068402188431060069850
:100CC00000F03AFB002805D0286E20210843286652
:100CD000296611E06868A0420ED1A8680121CA0304
:100CE000904202D08902884206D103204002069930
:100CF00000F0CAFA0028E7D1286E002801D10120AF
:100D0000A8555C200021295407B0F0BDF0B585B08E
:100D10005C24CE4D2A5D012A00D188E00122039295
:100D20002A55CB4A126A5D230293EE5C012E7CD1D8
:100D300000287AD0002978D00326029BEE5444265E
:100D40000023AB532B66E9874626AB53A987A863DC
:100D50002B64EB6400932B652F68039BDE03AB6869
:100D6000B34208D13B684026B3433B60039B9B03DF
:100D70003E681E433E603B685B0603D43B684026EA
:100D80001E433E606B68019307231E02EB68B3426B
:100D900019D9019B002B01D0012906D10188F960E6
:100DA000801CA863E98F491EE987E98F002924D0B8
:100DB000B9688907F2D4F149096A891A3346CF33F1
:100DC0009942F2D92EE0019B002B01D0012906D1D6
:100DD00001783973401CA863E98F491EE987E98FC0
:100DE00000290AD0B9688907F2D4E449096A891A46
:100DF0003346CF339942F2D914E0104600F024FA7A
:100E0000002801D020202866A868002807D1009873
:100E100004902868C1680491806804900498286E42
:100E2000002802D10398029968540020285505B083
:100E3000F0BDC04690040020F8080020F0B587B04F
:100E40005C25824C635D012B01D10224E6E0049015
:100E5000059101236355EE48006A06905D21675CA9
:100E6000012F12D0039128464124A50077494E68EE
:100E70000224AE4200D087E08D68002D00D083E0D0
:100E8000042F0546039900D0C5E00498002879D0C6
:100E90000598002876D0002A1C4600D1BBE0F9480E
:100EA000435C042B01D00523435403910095002695
:100EB0000666462402534423C252C28707231F02F8
:100EC000C56801230295BD42194600D93146090380
:100ED0000191190303685D688D4301996D185D6088
:100EE000059D0564049D8563C664066582871D684B
:100EF0006D0603D41D6840262E431E604168029D86
:100F0000BD4243D9002901D0012A08D1049D2A8875
:100F1000DA60AD1C04958563C28F521EC287012220
:100F20000399C58F002D02D1055B002D79D09D68F6
:100F3000AD070ED5C58F002D0BD0012A09D1049D18
:100F40002A88DA60AD1C04958563C28F521EC28761
:100F500000229D68ED070CD0055B002D09D0DA68F2
:100F6000059D2A80025B521E0253AD1C0595056447
:100F70000122F04D2D6A069EAD1B3E46CF36B5428E
:100F8000CFD942E01C4646E0054644E0002901D0A6
:100F9000012A08D1049D2A781A736D1C0495856373
:100FA000C28F521EC28703990122C58F002D02D124
:100FB000055B002D35D09D68AD070ED5C58F002D82
:100FC0000BD0012A09D1049D2A781A736D1C04954F
:100FD0008563C28F521EC28700229D68ED070CD028
:100FE000055B002D09D01A7B059D2A70025B521EFD
:100FF00002536D1C059505640122F94D2D6A069E6C
:10100000AD1B3E46CF36B542CFD90E460324009DD8
:101010000120EE4988550020EC494855204607B08C
:10102000F0BD0E46069800F00FF9002806D02020EB
:10103000E649086608460124009D02E00024009D60
:10104000E248006E0028E3D00124E4E79004002089
:10105000F8080020F8B502468026344CA059202814
:1010600062D1002A60D00B4600295DD001252803FB
:10107000A168814204D12069002801D1D00753D151
:101080002566002161668427E151582023522220E1
:10109000A0516265606F002813D00097264F8762C9
:1010A000244FC762224F0763416321682431FFF751
:1010B000EBFB002805D01020009960502020A051A3
:1010C000F8BD206900280AD0EFF3108085F310885E
:1010D0002902226813680B43136080F31088EFF332
:1010E000108085F3108821688A682A438A6080F31B
:1010F0001088EFF3108085F3108821688A684023F8
:1011000013438B6080F31088206E01280CD1206877
:1011100010210162EFF3108085F3108822681368B4
:101120000B43136080F31088F8BDC046080400200C
:10113000F7130008D9140008531400081CB5014621
:10114000A74C2078002802D00020207003E0204621
:10115000483000F05FF801A800F03EF8002804D005
:101160000199002901D089B204E0012020701034D7
:1011700002212046FFF76EFF1CBDC046F808002084
:1011800080B5012001F07EFE80BDFEE710B5C2688B
:101190000369934202D10020086010BD01D99B1A57
:1011A00008E04469944204D10B6001214172406817
:1011B00010BDA31A0B604068801810BD427A002A47
:1011C00002D00022427200E0C268511802689142C7
:1011D00000D10021C1607047B0B581494D6D8A6D65
:1011E000D343EB188C6C954200D81B19A51AAB425F
:1011F0001C4600D32C461B1BA34205D950220124B8
:101200008C540360C86CB0BD0460C86C8018B0BD5D
:10121000F808002010B50269037A002B02D00023E1
:10122000037202E0446913462246591891420B4664
:1012300000D8134643610268914200D10021016148
:1012400010BDFEE770470000B0B505460324E0027C
:10125000294600F019F800280BD1284600F06CF858
:10126000002806D103204002294600F00DF800288E
:1012700006D05648016E20220A4302662046B0BDC1
:101280000024FBE790040020FEB5024601A80023DD
:1012900000930370D54D286A081A7D21090146186C
:1012A0004948806823214143080D70432F6A02900A
:1012B000464803689868104213D0032041028A42CE
:1012C00003D1197B01AC21700199296AC91BB14274
:1012D00009D202980299491E02910028EAD10646D5
:1012E000E8E70098FEBD5968E0229143596041212A
:1012F0008900364D6A688A420BD1AA680124E1034D
:101300008A4202D0A1028A4203D119684022914345
:10131000196001225403A96AA14205D11968A143A9
:1013200019601968214319605C2100236B545D2109
:101330006A54FEBDF808002078B5AC4A116A401A1C
:101340007D2109014318204880684001000D584361
:10135000146A00901D4801688D682D060BD5156A2A
:101360002D1B9D4209D2009D009E761E0096002DE9
:10137000F2D12B46F0E7002078BD4A68E0239A437B
:101380004A6041229200436893420BD18268012354
:10139000DC03A24202D09B029A4203D10A68402396
:1013A0009A430A6001225303846A9C4205D10C6867
:1013B0009C430C600C681C430C605C21002343546C
:1013C0005D214254032078BD0000002090040020DD
:1013D000704700008548016A491C01627047C04699
:1013E000F80800207047406A0146523100220A8105
:1013F00052214252704770B5406AC46F80214258F2
:101400000146523103689D682D0612D5212C10D15A
:1014100000230B80EFF31083012484F31088046809
:101420002568C026B543256083F310882023C36751
:101430000368044680349B685B0605D5222A03D1E5
:1014400000220A8100F079F8606810210143616090
:1014500070BD70B5426A114658318069202832D07B
:1014600000204880EFF31083012080F310880402ED
:1014700015682E68A6432E6083F31088EFF310835F
:1014800080F310881468A5688543A56083F31088ED
:10149000EFF3108380F310881468A5684026B543E5
:1014A000A56083F3108820238B62136E012B0AD171
:1014B000EFF3108380F31088106804681025AC43A4
:1014C000046083F3108800205066106E012802D15A
:1014D0000888FFF733FE70BD80B5406A0121416680
:1014E000016E012904D15821405A4008FFF726FE19
:1014F00080BDB0B58169202902D1FFF741FEB0BDA2
:10150000406A522100224252EFF31081012282F3FD
:10151000108803689C688025AC439C6081F3108828
:10152000EFF3108182F310880068026840231343B0
:10153000036081F31088B0BD7047B0B5EFF310823F
:10154000012181F3108809235B01046825689D430C
:10155000256082F31088EFF3108281F3108803680E
:101560009C688C439C6082F31088026E012A0AD129
:10157000EFF3108281F3108801680B681024A343F5
:101580000B6082F310888021202242500021816666
:101590000166B0BDF8B5D74D2A680124E302134EA9
:1015A000D769074087420FD0376A7F1A7F0E0DD167
:1015B00017687F07F4D5D7693F0709D4D7691F4259
:1015C000EED00324202605E000240CE003240AE0EA
:1015D00008231E4613622846FFF7AFFF782000213C
:1015E000295484202E502046F8BDC046F80800201B
:1015F000F0B585B0EE4F3868C2690168866801258C
:10160000EB021C460F3422426ED0BB4C0C402E40E5
:1016100034196DD0D407049108D0CC0506D50562E5
:10162000842439463F592F430F510F46394602272C
:10163000144603973C4067426741744274413C43FF
:101640000CD1039C0462842702970C46CC590427D2
:101650002743029C0193D64B1F51019B7442744156
:1016600057072F4600D52746002F0F4609D10424DF
:101670000462842402940F59039C2743029C0F5157
:101680000F46140704990CD5741EA6418C0600D48D
:101690003546012D05D10824046284257E59264350
:1016A0007E511A4207D04C0105D503628423FC58B1
:1016B00020252543FD5084257B59002B6FD09206B1
:1016C00007D5890605D5B96E002902D03846884766
:1016D0003868795928220A408068402630408018AE
:1016E0002AD1002078515AE0930601D58B0651D4B7
:1016F0003B6E012B03D1D30601D5CB0651D4100686
:1017000001D5080616D4500649D5480647D5EFF34B
:101710001080012181F3108839680A6840239A43B8
:101720000A6080F310880020F8662020F867FFF731
:1017300027FD34E0F96E2EE03846FFF7FEFE3868EC
:10174000806840062BD5EFF31080012181F31088CB
:101750003A689368B343936080F31088786F0028E9
:101760001DD002462032654B43635378022B00D0D4
:10177000AEE003681C680E25AC431C601C688C43FB
:101780001C60C36B046C0D46A5405D6000231370A4
:1017900051709FE0B96E002901D08548884705B097
:1017A000F0BD102101628068400633D45A23F85AF4
:1017B0005822BA5AFB5A002BF1D0101A0204EED06C
:1017C000EFF31083012282F31088092464013D683D
:1017D0002E68A6432E6083F31088EFF3108382F304
:1017E00010883C68A5689543A56083F31088802322
:1017F0002024FC500023BB663B66EFF3108382F38A
:1018000010883A6814688C43146083F310880221AE
:1018100079666BE07D6F28684668B2B2002ABED058
:1018200058203B5A9A42BAD25A22BE52AC69202C56
:1018300058D0EFF31084012383F31088304D203506
:101840003E6837682F40376084F31088EFF31084C8
:1018500083F31088564D2D68AE689E43AE6084F3C6
:101860001088EFF3108483F31088514D2D68AE6813
:101870004027BE43AE6084F31088802420254C4E60
:10188000355100254A4C04952566EFF3108483F307
:101890001088474D2E6837688F433760444F84F374
:1018A00010887E6F2121745C31462031022C14D1C6
:1018B000346827680E25AF4327603D4F25689D4358
:1018C0002560F46B356C1E46AE4066604B7006E0DA
:1018D00004218163FFF787FD61E70423B363049B61
:1018E0000B703B5A02207866B85A181A80B2FFF77C
:1018F00025FC54E70804002020010004E713000839
:10190000DFFEFFFFB0B50146294C60602948006842
:101910008007000F284A13580120C203E5692748B1
:1019200095420DD1082B41D87B441B795B009F4425
:10193000043D1C3D153D3D3D1B00FFF7D7F80FE072
:10194000082B33D87B441B795B009F44042F242F42
:101950001D2F2F2F2300FFF7C9F817E0FFF7D8F846
:10196000002823D0616800E0104640004A081018A3
:10197000FEF792FD0246103A11498A4216D2014002
:101980000007400F08430FE0FFF7C2F800280DD012
:10199000616800E010464A081018FEF77DFD014618
:1019A0001039074A914201D22168C860B0BDC046D3
:1019B00008040020301002409C2F000800127A001A
:1019C000F0FF0000BFF34F8F034804490160BFF3ED
:1019D0004F8F00BFFDE7C0460CED00E00400FA05A4
:1019E00010B5FF200206DD49086890430860012217
:1019F00092020023002A05D00C781B19DBB2521E7C
:101A0000491CF7E7D94309060818D449086010BDF6
:101A1000F0B50146D2480C18012085024B1D00226A
:101A20000E46002D05D03778D219D2B26D1E761C25
:101A3000F7E7096809020B4DA94212D12178BE29A6
:101A40000FD119785C78240261189B781B04C9189F
:101A500049020123DB04994203D8FF3A501E824118
:101A60001046F0BD00BAFECA70B50546BB48017904
:101A7000002917D0041D6078A178090208180321F5
:101A8000615609044618211D2846FEF7BDFB002EAD
:101A900006D5002807D0204600F01CF80446EAE7E7
:101AA000002800D00024204670BDC04680B5AB4859
:101AB000017900290CD0001D41788278120251185A
:101AC000032282561204891803D500F003F8F3E7C5
:101AD000002080BD4178827812025118032282567C
:101AE0001204891801D400207047034A114002787B
:101AF00089180818001D7047FFFF7F00FEB50328F6
:101B00006DD015460C4604286FD0102871D02028BF
:101B10000CD021282FD022283BD0FF285DD00028D0
:101B200000D1DBE0002001460246B3E00C2D5ED977
:101B30004B204001217809186F48818161788173B9
:101B4000A178C173E178017421794174617981745C
:101B5000A179FA224A438282E1798175217AC1759D
:101B6000617A0176A17A4176E17A8176217BC1762C
:101B700000F0D0FFFEBD6248C078012833D15E4935
:101B80000C316048102200F099FE00F079FE21200F
:101B90007EE0594DA87B594C6070E87BA070287C92
:101BA000E070687C2071A87C6071A87DE071E87DA0
:101BB0002072287B60382070A88AFA21FEF76CFC1E
:101BC000A071287E6072687EA072A87EE072E87EB6
:101BD000207322200D2221465CE0FF2058E0484877
:101BE000C07800287CD1022052E0022D55D8012077
:101BF0004EE0454E20213046FEF74CFC3046214653
:101C00002A46FEF78BFB3E4E01277773F47B3F4D50
:101C1000032C12D301F0A4F8800601D4062C0CD3B7
:101C20000097102028610024B47301F08BF801F0B4
:101C300077F801F07EF8F47304E0B07B00210091A6
:101C400002280DD010272F610024204601F0BCF897
:101C5000FE210140204601F083F90220B0732F607D
:101C600002A8A021017008272F6101A901242246A2
:101C7000FFF7E4F8204801782348FFF747F82F6082
:101C80002C61F07B401CF0730098002804D01520D4
:101C900000210A4601F0AEF8FEBD20781C49414300
:101CA000607864224243A07810184018124C60609B
:101CB000042000210A4601F09DF8FEF723FE60682B
:101CC000FFF720FE0E48C0780128E5D1211D1148FC
:101CD000042200F0F3FD00F0D3FDFEBDFFF772FE1D
:101CE00000F0BEFD032000210A4601F083F8FEF754
:101CF00009FEFFF767FEC0460000002040010020FB
:101D0000F8080020B52F00085809002018000048E6
:101D100010270000AC2F000810B5044600F03EFD6F
:101D2000002804D00D49204600F076FE10BD0020AA
:101D300010BDC04610B5094C204608307F21C900AF
:101D4000FF22FEF780FB0648BE21215400200549F2
:101D500021606060FFF744FE10BDC046F80400201B
:101D6000FF030000BAFECA0000B595B05A4F3868AC
:101D700010210D9108433860FEF794FE574EB0696C
:101D800001242043B061B0692040109010982007D2
:101D9000F1690143F161F169014010911098706897
:101DA0000007800F16D070680C210140082904D16B
:101DB000F7481030716801420CD030682043306021
:101DC000F448016A3268920705D4026A521A022A5C
:101DD000F8D97CE03068306880210B910843782185
:101DE0000C9188433060706A20437062EF4B186A30
:101DF000716A890704D4196A091A0229F8D966E0B8
:101E000070680C25284008283AD17068F16AE04AC9
:101E1000103210425BD10F22114058D1910408407A
:101E20000521C904884252D13868C00706D13868F4
:101E30000121014339603868C0071DD00720089090
:101E4000010270680991084370607068F02188434E
:101E50007060306880010FD5706802210E910843D0
:101E6000A0437060186ADB4972682A40082A37D09C
:101E70001A6A121A8A42F7D9EFF3108072B6FEE797
:101E800020063168814331606006196A3268024277
:101E900004D01A6A521A022AF8D918E0F16A0F22FD
:101EA0009143F1623D21090472688A430521C90406
:101EB00051187160C849491C32680A433260196A76
:101EC00032680242B0D11A6A521A022AF8D9EFF3E4
:101ED000108072B6FEE7C0460020024000100240AB
:101EE00038687068099988437060FEF711FE716860
:101EF0000906090FB9A2515CC840BC498860FEF7C9
:101F0000D1FD306B0321079188433063002714977C
:101F100061047069084370617069069108400F9010
:101F20000F98B3480921019141600D9941611397C0
:101F3000129711201190109410A80A94AD490446EC
:101F400088470A98129021200004119004200590DF
:101F500010902046A7498847139712970A98119026
:101F6000182010902046A34988470A9CA24B196864
:101F7000A2480140079A920589181960A04A402199
:101F8000049111607169214371617169214010915F
:101F9000109959680140E005081858601146C3209F
:101FA00080000390F4301060964A9748E1210903BD
:101FB0001060029151609760D760176155611546B6
:101FC0009761D76117625762D16F002957D12946AF
:101FD00000250C980D5401241494A003B169014309
:101FE000B161B16901400F910F987069069908437A
:101FF0007061706908400F9012950E98119003203F
:102000001390400210900F9810A8FEF795FC7F499E
:102010007F48143021C10D600B9F4F608D60CD60F3
:102020000D614D6108390846FEF7F2FB002800D02B
:10203000D3E174487549486241677649744808603D
:102040000D980A1DA1C20F460D614D618D61CD61D4
:102050000846FEF7DDFB002800D0BEE1FF200006A9
:10206000654A51698143A00708185061E006644938
:102070000860644D7D622F6728686F6A0A9C24217E
:10208000E9670168A1430160002F48D0390705D5F1
:10209000E10342688A43696B11434160F90705D047
:1020A0004168069A9143AA6A0A434260B90705D576
:1020B000210442688A43E96A11434160790705D5E2
:1020C000A10442688A43296B11434160F90605D592
:1020D000210382688A43A96B11438160B90605D543
:1020E000610382688A43E96B1143816079060ED5EA
:1020F000210542688A432B6C1A4342608B4206D109
:102100000799490542688A43696C11434160390661
:1021100005D5E10442688A43A96C11434160016816
:102120003D4A0A40A9682B690B436C691C43E96965
:102130000C4314430460079A120343689343EA680C
:102140001A434260AA692B6A13430B221202846865
:1021500094431C438460306B8007000F2F4A135850
:102160000A98C2032E48914219D1082B00D945E2A2
:102170005B00C0467B449B885B009F440D003F0290
:102180005C003F0256003F023F023F025B00C04638
:10219000F0FF0000F8080020FEF7A8FC47E0082B3D
:1021A00000D92BE2990002A359588F46F808002065
:1021B00025220008FD25000867220008FD250008EB
:1021C0005B220008FD250008FD250008FD2500080C
:1021D0006522000888130000FFFFFF0000000000D8
:1021E00000000000010203040607080900000020A7
:1021F000140000483909000804E400E0FFFF00FF74
:1022000000E100E00804002000380140C403002081
:102210001C00024080030020F369FFFF9C2F000890
:1022200000127A00FEF762FC19E0FEF771FC00284C
:1022300001D125E01046400069684A081018FEF7F1
:102240002BF901461038F84A904200D3D6E108072E
:10225000F54A1140400F084310E0FEF759FC0028F2
:1022600001D10DE0104669684A081018FEF714F90C
:1022700001461039EC4A914200D3BFE12968C86099
:1022800028684168E94A1140416081680823994300
:10229000816001680A9A1143016084212A46002561
:1022A00055509566D566F44A116A046824070DD521
:1022B0001C460A9840050F46FFF76CF9002800D02D
:1022C000A1E1F0480068EC4A23463946006840071F
:1022D00009D50A9880051F46FFF75CF93B46E64A98
:1022E000002800D0A4E12020E64FF8670B99785031
:1022F0000C983D543D667D66E44F0A9C3D627D62CC
:10230000BD620898F8623D637B6360020D90210214
:102310000C91091DDE4823C7099939607D60BD60B5
:102320000D98F8603B615D210C3F785C002821D15D
:102330000D915C2100207854D649491CB2690A43AA
:10234000B261B2690A40109210997169069A1143FC
:102350007161716911400F911490032113911290D2
:102360000E981190E02010900F9810A8FEF7E4FA54
:102370000D99C14A0E987854C54B18680E460499B9
:102380008843186003981860C3485860D869BE49EC
:102390000840D8613D66BC55147314711472BF4B6C
:1023A000BF481860BF4818601079002800D1079016
:1023B00007985860107A0028B64C2146059F00D136
:1023C00001469960106AD968490708D0116A091A4C
:1023D0002829F8D3D9684907F5D0FEF795F9186987
:1023E000117B002900D10C46AF49A04201D11960F0
:1023F00000E01C6150201552AC480C9911635063E9
:10240000AB48158755659565D565D56315645564E5
:102410009164D06410AE3046FEF7DEFE3188FEF7E0
:1024200019FEA44800888002A3494418A34946180D
:1024300091488662C462FFF77DFC2046FFF7E8FA08
:10244000002832D03046FFF7E3FA0D90002807D07D
:102450003046FFF761FC0028874B864E22D0DC6AAD
:102460002046FFF7D5FA002828D0834B986A0079D8
:1024700000280A987F4E00D00D9800280CD12046E5
:1024800000F08CF97C4B002806D0996AD86A00F0DD
:10249000C3FA794B002821D1D86AFFF73DFCF74BEE
:1024A00000281BD10020D87035E001208202B948F5
:1024B0002146FDF74FFEF14C6E4E16E00D980028B8
:1024C000EE4B6C4E0AD0986A00F068F9EB4B00288E
:1024D00004D0986AD96A00F09FFAF64BD96A0120B5
:1024E0008202F5481C46FDF735FE0A98E070634C01
:1024F00021460C317248102200F06AFA211D714801
:10250000042200F065FA6068002804D0029988422D
:1025100001D0FFF7F7F900F0FDFAE649C878002886
:10252000574C0FD006270DE02068012132461032AB
:10253000030408401340C01848406060FEF7E2F909
:10254000DC496D1CE8B28742EED80C6A0D4648356E
:1025500010A92846FEF71AFE002845D0109E002E2E
:1025600042D007460D940024D24BA64237D0385DA6
:102570005978002903D1AA2801D1012004E00129BA
:1025800005D1552803D10E985870641CEDE7042935
:102590000ED0032905D002291AD103215970987051
:1025A000F3E70021002815D09861D9610420EBE7FA
:1025B000D969454A5054481CD8619A699042E4D37D
:1025C0000020587098784049FFF798FAB94BDCE73B
:1025D0000020D9E7597098780A46FFF78FFA284605
:1025E0003146FEF7EBFD0D9CB249086A001B6428DA
:1025F000ACD30C6A29482C4A0260A7E70020A866E1
:10260000E866FEF781F8EFF310800A9981F31088ED
:102610001C4B19680A680B9CA2430A6080F310885F
:1026200018467C301EE0C046F0FF0000FFF7FFFFB9
:10263000EFF310800A9C84F3108801994901114E30
:10264000326813688B43136080F31088EFF31080B7
:1026500084F3108831688A68A2438A6080F3108806
:10266000304680300C99074A555420210160FEF70E
:102670004BF8C046F0FF0000F808002000000020E2
:102680001400004808040020FFF7FFFF900400201A
:1026900000300140FF0F000008170000003000402C
:1026A000CCCC000055550000AAAA000080010020F3
:1026B00080020020CCF7FF1F00FCFF0700F8FF0797
:1026C000B52F0008AC2F0008C0000020F0B585B081
:1026D00015460E460746FFF7C7F9002801D0FC272C
:1026E00054E0FFF7E3F904463846FDF76BFDB74BBE
:1026F000421CC849002C0296039010D0084661780D
:102700001646A27812025118E27812048918014084
:102710002278511832460E19301D049002E0181D1F
:1027200004901E4608361C495818049949198918FE
:10273000091D814201D9FE2728E030463946019221
:10274000039AFDF7EBFD00270398375401983018E2
:1027500002992A46FDF7E2FDAE4A1540280A04997F
:1027600088704D70280CC87001980870002C0DD02E
:102770006078A17809020818E17809044018511C12
:1027800001436170080CE070080AA07078B205B0CF
:10279000F0BDC046F8040020FF030000FEB505466A
:1027A000D7480088470800242646F0B287424FD910
:1027B000FDF734FFA84201D0761CF6E7FEF7ACF82F
:1027C0003821D34D685C012801D1022437E0CC4880
:1027D0000488012701916F54FDF79AFF002801D06A
:1027E0003A4628E0F043C749014360188002F906E1
:1027F00047181A49401802900120C34E002402993C
:102800008F4216D2EC63306802252843306077602F
:102810003068402101433160FDF77AFF3168A943F8
:102820003160002816D1012080023F182046B84DA3
:10283000E4E70246E7430199002068541446B24A8F
:102840001068802101431160F84320434442444111
:102850002046FEBD02460199AD4DEDE7000400089B
:1028600010B5FFF767FA134CE06AFFF755FA002836
:1028700002D0A06AFFF750FA10BDC046F808002049
:1028800010B50C4CA06AFFF789FF002810D0A06A91
:10289000E16A00F0C1F800280AD0FFF7A1F8E06A69
:1028A000FFF77CFF002803D0E06A484900F0B4F845
:1028B00010BDC046F8080020F8040020FEB51446FC
:1028C0000F460646FFF7D0F8002813D041788278EB
:1028D00012025118C278120489184E4A1140A142BE
:1028E0000BD101784018001D39462246FDF716FD30
:1028F000002569E03046394662E034480079FD251C
:10290000002861D002973046FFF7AEF800285BD070
:102910000746FFF7CBF87978BA7812025118FA789F
:10292000120489183B4D29403A788A18131DB84281
:102930001AD0C11B891A02788D1842781946019362
:1029400083781B029A18C07800041018314A10408E
:102950002D18791838462A46FDF744FD7819FF22CC
:102960000199FDF767FD29E000921848001D874294
:102970001CD001930546FFF7ADF8B842FAD1002DFF
:10298000019B13D06878A97809020818E97809042E
:102990004018204908406870010CE970000AA870CE
:1029A000FF2238461946FDF74EFD07E0381DFF228D
:1029B0000099FDF73FFD0020044948603046029928
:1029C0002246FFF783FE054668B2FEBDF8040020EC
:1029D00070B514460D460646FFF746F8002812D09B
:1029E0004178827812025118C27812048918094A73
:1029F0000A40A24207D101784018011D284622460C
:102A0000FDF78CFC70BD304629462246FFF756FF85
:102A100070BDC046FFFF7F00F0B587B0049105464A
:102A2000374800880690470800242646F0B28742BF
:102A30005FD9FDF7F3FDA84201D0761CF6E7F0431D
:102A40003049014306984018800201210391C906CC
:102A500040180090FDF760FF0021B04A2A4E8C0A12
:102A60004AD13823D05C012846D0029104980478DA
:102A7000457803980193D054FDF74AFE00282FD1E2
:102A80002248069901402802001909180691009869
:102A90000299401805900025039CE00716D00024F9
:102AA0009E48C46330680127384330602A01069885
:102AB000FDF723FC6900059A8852FDF729FE31686D
:102AC000B943316000283D46E7D009E00020934A31
:102AD000019950540299891C0498801C0490BEE707
:102AE00000248E4801994454074A1068802101430C
:102AF0001160204607B0F0BD601E8441F4E7C04677
:102B0000CCF7FF1F00FF3F00102002400000FFFF36
:102B100058090020F0B58DB0B5490820069008602E
:102B20007B48002802D000BF401EFAE71020086151
:102B3000D34800278773774D38460699A847012464
:102B4000029420462146A847022630460196214697
:102B5000A847032420462146A84704200090214688
:102B6000A847052004903146A84706200390072473
:102B70002146A8477E2105942046A84711242046D7
:102B80003946A84720463946A84712203946A84763
:102B900013203946A84714203946A847152039463E
:102BA000A84716203946A84717202146A8471C20C9
:102BB0003946A8471D203946A84708A8E2210170D8
:102BC000F54C069E266107A9029AFEF737F92660A2
:102BD00000F0B8F8384600F0F7F80199014338469C
:102BE000A8474D4E307B6038C1B20498A847B47BEB
:102BF000039800F0E9F8D7210140022C03D0012C02
:102C000003D1069800E0202001430624204600F06E
:102C1000A7F9F57B05980540204600F0D5F8069900
:102C200008404119204600F09BF9357C00242046DD
:102C300000F0CAF80146022D04D0012D04D1FB207A
:102C4000014001E000980143204600F089F9B07D81
:102C5000801EC1B2032000F083F9B07D09A90C7178
:102C60000994002805D03218927D0A70401E491C34
:102C7000F7E7102009A9052200F07AF9B07D0BA929
:102C80000C710B94002805D03218927D0A70401EFA
:102C9000491CF7E70A200BA9052200F069F9757CA9
:102CA000112029461B4A90473570B77C04252846D9
:102CB00000F08AF80743F02139432846154A904727
:102CC000B08AFA21FA2800D80846FDF7E5FB06018C
:102CD000103E284600F078F830430F210143C9B276
:102CE00028460C4A90470D4D20212846FDF7D2FB7F
:102CF000974844734562807B012801D000F046F874
:102D0000202000210A4600F075F80DB0F0BDC04645
:102D1000FFFF0000612F000800000020580900207C
:102D200080B500F023F810210143072000F018F9C6
:102D300080BD80B500F01AF820210143072000F083
:102D40000FF980BDBCB501A8E1210170924C0825A6
:102D5000256169460122FEF771F82560BCBDC046B9
:102D600080B5172000F030F880BD00007CB501A8C8
:102D7000FF210170884D08262E616C4601222146F4
:102D8000FEF75CF82E6020787CBDC046F8B5824D19
:102D900010262E610024204600F016F80146012777
:102DA0003943204600F0DCF8694887732E60F8BD8F
:102DB00080B5002801D0102000E0112000210A4633
:102DC00000F018F880BD0000FEB502AA1070724E27
:102DD0000827376101A9012410462246FEF72EF884
:102DE0006D4628462146FDF7C5FE37602878FEBDB2
:102DF00018000048F8B514461F4AD47090701F4858
:102E00001080002C09D0101D2246FDF787FA241DE2
:102E100001200002844201D9F8BD241D4C4DEB6B0A
:102E2000286CC1435A18296B834200D852180B1AD8
:102E30009A42114600D31946521A6B6B1E18002095
:102E400000280CD1A142304600D20020A142F7D286
:102E5000A242F5D3382001272F541846F0E706493F
:102E60002246FDF75BFA303528462146FEF7D2F9B7
:102E7000002000F007F8F8BD80000020AA660000DE
:102E8000F8080020F8B5002842D0314C61690029CB
:102E900005D020463030FEF791F9002060612046D1
:102EA000303021461431FEF771F900283CD001463C
:102EB000A38A264CE06F202835D1002B33D0012582
:102EC0002803A268824204D12069002801D1C807E2
:102ED00029D15220235284260022A251502023526D
:102EE000E1642120E067206F002820D01B4F87621B
:102EF000194FC762174F0763426322682832FDF7F4
:102F0000C3FC002813D01020A0512020E067F8BD9A
:102F10000E48C16F202906D1006F0028B5D02121AD
:102F2000405C0128B1D0F8BD00206061F8BD206888
:102F300040210162EFF3108085F3108821688A68D0
:102F4000802313438B6080F31088F8BD08040020B1
:102F5000F8080020F713000839150008F3140008DA
:102F6000E0B501AB19700122194600F001F88CBDE3
:102F7000FEB514460D462021014302A80170064EFD
:102F80000827376101A90122FDF758FF284621468D
:102F9000FDF7BCFE3760FEBD1800004800000000D1
:102FA0000400000008000000020000006261756477
:102FB00072617465006E72665F73657474696E67C2
:102FC00000000000E82F00080000002020000000A2
:102FD000F40000080830000820000020780F0000EE
:102FE00010010008000000002000000000100E008A
:102FF00000127A00AE09010702200300FA0005AAB8
:08300000BBCCDDEE0000000076
:04000005080000B13E
:00000001FF
